{
  "_format": "hh-sol-artifact-1",
  "contractName": "ManufactureProductDetails",
  "sourceName": "contracts/ManufactureProductDetails.sol",
  "abi": [
    {
      "inputs": [],
      "stateMutability": "nonpayable",
      "type": "constructor"
    },
    {
      "anonymous": false,
      "inputs": [
        {
          "indexed": false,
          "internalType": "string",
          "name": "serialID",
          "type": "string"
        },
        {
          "indexed": false,
          "internalType": "string",
          "name": "serialID1",
          "type": "string"
        },
        {
          "indexed": false,
          "internalType": "string",
          "name": "serialID2",
          "type": "string"
        },
        {
          "indexed": false,
          "internalType": "string",
          "name": "sourceManufacture",
          "type": "string"
        },
        {
          "indexed": false,
          "internalType": "string",
          "name": "destinationManufacture",
          "type": "string"
        },
        {
          "indexed": false,
          "internalType": "string",
          "name": "sourceDistributor",
          "type": "string"
        },
        {
          "indexed": false,
          "internalType": "string",
          "name": "destinationDistributor",
          "type": "string"
        }
      ],
      "name": "ProductFirstPoint",
      "type": "event"
    },
    {
      "inputs": [
        {
          "internalType": "string",
          "name": "serialID",
          "type": "string"
        },
        {
          "internalType": "string",
          "name": "serialID1",
          "type": "string"
        },
        {
          "internalType": "string",
          "name": "sourceManufacture",
          "type": "string"
        },
        {
          "internalType": "string",
          "name": "destinationManufacture",
          "type": "string"
        }
      ],
      "name": "addProductFirstPointDetails",
      "outputs": [],
      "stateMutability": "nonpayable",
      "type": "function"
    },
    {
      "inputs": [
        {
          "internalType": "string",
          "name": "serialID",
          "type": "string"
        },
        {
          "internalType": "string",
          "name": "serialID2",
          "type": "string"
        },
        {
          "internalType": "string",
          "name": "sourceDistributor",
          "type": "string"
        },
        {
          "internalType": "string",
          "name": "destinationDistributor",
          "type": "string"
        }
      ],
      "name": "addProductSecondPointDetails",
      "outputs": [],
      "stateMutability": "nonpayable",
      "type": "function"
    },
    {
      "inputs": [],
      "name": "authority",
      "outputs": [
        {
          "internalType": "address",
          "name": "",
          "type": "address"
        }
      ],
      "stateMutability": "view",
      "type": "function"
    },
    {
      "inputs": [
        {
          "internalType": "string",
          "name": "",
          "type": "string"
        }
      ],
      "name": "dataOfProduct",
      "outputs": [
        {
          "internalType": "string",
          "name": "serialID1",
          "type": "string"
        },
        {
          "internalType": "string",
          "name": "sourceManufacture",
          "type": "string"
        },
        {
          "internalType": "string",
          "name": "destinationManufacture",
          "type": "string"
        }
      ],
      "stateMutability": "view",
      "type": "function"
    },
    {
      "inputs": [
        {
          "internalType": "string",
          "name": "",
          "type": "string"
        }
      ],
      "name": "dataOfProduct2",
      "outputs": [
        {
          "internalType": "string",
          "name": "serialID2",
          "type": "string"
        },
        {
          "internalType": "string",
          "name": "sourceDistributor",
          "type": "string"
        },
        {
          "internalType": "string",
          "name": "destinationDistributor",
          "type": "string"
        }
      ],
      "stateMutability": "view",
      "type": "function"
    },
    {
      "inputs": [
        {
          "internalType": "string",
          "name": "serialID",
          "type": "string"
        }
      ],
      "name": "getDistributorDetials",
      "outputs": [
        {
          "components": [
            {
              "internalType": "string",
              "name": "serialID2",
              "type": "string"
            },
            {
              "internalType": "string",
              "name": "sourceDistributor",
              "type": "string"
            },
            {
              "internalType": "string",
              "name": "destinationDistributor",
              "type": "string"
            }
          ],
          "internalType": "struct ManufactureProductDetails.DistributorDetails",
          "name": "",
          "type": "tuple"
        }
      ],
      "stateMutability": "view",
      "type": "function"
    },
    {
      "inputs": [
        {
          "internalType": "string",
          "name": "serialID",
          "type": "string"
        }
      ],
      "name": "getManufactureDetials",
      "outputs": [
        {
          "components": [
            {
              "internalType": "string",
              "name": "serialID1",
              "type": "string"
            },
            {
              "internalType": "string",
              "name": "sourceManufacture",
              "type": "string"
            },
            {
              "internalType": "string",
              "name": "destinationManufacture",
              "type": "string"
            }
          ],
          "internalType": "struct ManufactureProductDetails.ManufactureDetails",
          "name": "",
          "type": "tuple"
        }
      ],
      "stateMutability": "view",
      "type": "function"
    }
  ],
  "bytecode": "0x608060405234801561001057600080fd5b5033600260006101000a81548173ffffffffffffffffffffffffffffffffffffffff021916908373ffffffffffffffffffffffffffffffffffffffff160217905550611161806100616000396000f3fe608060405234801561001057600080fd5b506004361061007d5760003560e01c8063a9cdc0e81161005b578063a9cdc0e814610102578063b81802e91461011e578063bf7e214f1461014e578063c98478021461016c5761007d565b806343e2352b146100825780635fc5bf4b146100b45780637645d706146100d0575b600080fd5b61009c60048036038101906100979190610cdd565b61019c565b6040516100ab93929190610dae565b60405180910390f35b6100ce60048036038101906100c99190610dfa565b610374565b005b6100ea60048036038101906100e59190610cdd565b61041c565b6040516100f993929190610dae565b60405180910390f35b61011c60048036038101906101179190610dfa565b6105f4565b005b61013860048036038101906101339190610cdd565b61069c565b6040516101459190610f79565b60405180910390f35b61015661088a565b6040516101639190610fdc565b60405180910390f35b61018660048036038101906101819190610cdd565b6108b0565b6040516101939190611055565b60405180910390f35b6001818051602081018201805184825260208301602085012081835280955050505050506000915090508060000180546101d5906110a6565b80601f0160208091040260200160405190810160405280929190818152602001828054610201906110a6565b801561024e5780601f106102235761010080835404028352916020019161024e565b820191906000526020600020905b81548152906001019060200180831161023157829003601f168201915b505050505090806001018054610263906110a6565b80601f016020809104026020016040519081016040528092919081815260200182805461028f906110a6565b80156102dc5780601f106102b1576101008083540402835291602001916102dc565b820191906000526020600020905b8154815290600101906020018083116102bf57829003601f168201915b5050505050908060020180546102f1906110a6565b80601f016020809104026020016040519081016040528092919081815260200182805461031d906110a6565b801561036a5780601f1061033f5761010080835404028352916020019161036a565b820191906000526020600020905b81548152906001019060200180831161034d57829003601f168201915b5050505050905083565b826001856040516103859190611114565b908152602001604051809103902060000190805190602001906103a9929190610a9e565b50816001856040516103bb9190611114565b908152602001604051809103902060010190805190602001906103df929190610a9e565b50806001856040516103f19190611114565b90815260200160405180910390206002019080519060200190610415929190610a9e565b5050505050565b600081805160208101820180518482526020830160208501208183528095505050505050600091509050806000018054610455906110a6565b80601f0160208091040260200160405190810160405280929190818152602001828054610481906110a6565b80156104ce5780601f106104a3576101008083540402835291602001916104ce565b820191906000526020600020905b8154815290600101906020018083116104b157829003601f168201915b5050505050908060010180546104e3906110a6565b80601f016020809104026020016040519081016040528092919081815260200182805461050f906110a6565b801561055c5780601f106105315761010080835404028352916020019161055c565b820191906000526020600020905b81548152906001019060200180831161053f57829003601f168201915b505050505090806002018054610571906110a6565b80601f016020809104026020016040519081016040528092919081815260200182805461059d906110a6565b80156105ea5780601f106105bf576101008083540402835291602001916105ea565b820191906000526020600020905b8154815290600101906020018083116105cd57829003601f168201915b5050505050905083565b826000856040516106059190611114565b90815260200160405180910390206000019080519060200190610629929190610a9e565b508160008560405161063b9190611114565b9081526020016040518091039020600101908051906020019061065f929190610a9e565b50806000856040516106719190611114565b90815260200160405180910390206002019080519060200190610695929190610a9e565b5050505050565b6106a4610b24565b6001826040516106b49190611114565b90815260200160405180910390206040518060600160405290816000820180546106dd906110a6565b80601f0160208091040260200160405190810160405280929190818152602001828054610709906110a6565b80156107565780601f1061072b57610100808354040283529160200191610756565b820191906000526020600020905b81548152906001019060200180831161073957829003601f168201915b5050505050815260200160018201805461076f906110a6565b80601f016020809104026020016040519081016040528092919081815260200182805461079b906110a6565b80156107e85780601f106107bd576101008083540402835291602001916107e8565b820191906000526020600020905b8154815290600101906020018083116107cb57829003601f168201915b50505050508152602001600282018054610801906110a6565b80601f016020809104026020016040519081016040528092919081815260200182805461082d906110a6565b801561087a5780601f1061084f5761010080835404028352916020019161087a565b820191906000526020600020905b81548152906001019060200180831161085d57829003601f168201915b5050505050815250509050919050565b600260009054906101000a900473ffffffffffffffffffffffffffffffffffffffff1681565b6108b8610b45565b6000826040516108c89190611114565b90815260200160405180910390206040518060600160405290816000820180546108f1906110a6565b80601f016020809104026020016040519081016040528092919081815260200182805461091d906110a6565b801561096a5780601f1061093f5761010080835404028352916020019161096a565b820191906000526020600020905b81548152906001019060200180831161094d57829003601f168201915b50505050508152602001600182018054610983906110a6565b80601f01602080910402602001604051908101604052809291908181526020018280546109af906110a6565b80156109fc5780601f106109d1576101008083540402835291602001916109fc565b820191906000526020600020905b8154815290600101906020018083116109df57829003601f168201915b50505050508152602001600282018054610a15906110a6565b80601f0160208091040260200160405190810160405280929190818152602001828054610a41906110a6565b8015610a8e5780601f10610a6357610100808354040283529160200191610a8e565b820191906000526020600020905b815481529060010190602001808311610a7157829003601f168201915b5050505050815250509050919050565b828054610aaa906110a6565b90600052602060002090601f016020900481019282610acc5760008555610b13565b82601f10610ae557805160ff1916838001178555610b13565b82800160010185558215610b13579182015b82811115610b12578251825591602001919060010190610af7565b5b509050610b209190610b66565b5090565b60405180606001604052806060815260200160608152602001606081525090565b60405180606001604052806060815260200160608152602001606081525090565b5b80821115610b7f576000816000905550600101610b67565b5090565b6000604051905090565b600080fd5b600080fd5b600080fd5b600080fd5b6000601f19601f8301169050919050565b7f4e487b7100000000000000000000000000000000000000000000000000000000600052604160045260246000fd5b610bea82610ba1565b810181811067ffffffffffffffff82111715610c0957610c08610bb2565b5b80604052505050565b6000610c1c610b83565b9050610c288282610be1565b919050565b600067ffffffffffffffff821115610c4857610c47610bb2565b5b610c5182610ba1565b9050602081019050919050565b82818337600083830152505050565b6000610c80610c7b84610c2d565b610c12565b905082815260208101848484011115610c9c57610c9b610b9c565b5b610ca7848285610c5e565b509392505050565b600082601f830112610cc457610cc3610b97565b5b8135610cd4848260208601610c6d565b91505092915050565b600060208284031215610cf357610cf2610b8d565b5b600082013567ffffffffffffffff811115610d1157610d10610b92565b5b610d1d84828501610caf565b91505092915050565b600081519050919050565b600082825260208201905092915050565b60005b83811015610d60578082015181840152602081019050610d45565b83811115610d6f576000848401525b50505050565b6000610d8082610d26565b610d8a8185610d31565b9350610d9a818560208601610d42565b610da381610ba1565b840191505092915050565b60006060820190508181036000830152610dc88186610d75565b90508181036020830152610ddc8185610d75565b90508181036040830152610df08184610d75565b9050949350505050565b60008060008060808587031215610e1457610e13610b8d565b5b600085013567ffffffffffffffff811115610e3257610e31610b92565b5b610e3e87828801610caf565b945050602085013567ffffffffffffffff811115610e5f57610e5e610b92565b5b610e6b87828801610caf565b935050604085013567ffffffffffffffff811115610e8c57610e8b610b92565b5b610e9887828801610caf565b925050606085013567ffffffffffffffff811115610eb957610eb8610b92565b5b610ec587828801610caf565b91505092959194509250565b600082825260208201905092915050565b6000610eed82610d26565b610ef78185610ed1565b9350610f07818560208601610d42565b610f1081610ba1565b840191505092915050565b60006060830160008301518482036000860152610f388282610ee2565b91505060208301518482036020860152610f528282610ee2565b91505060408301518482036040860152610f6c8282610ee2565b9150508091505092915050565b60006020820190508181036000830152610f938184610f1b565b905092915050565b600073ffffffffffffffffffffffffffffffffffffffff82169050919050565b6000610fc682610f9b565b9050919050565b610fd681610fbb565b82525050565b6000602082019050610ff16000830184610fcd565b92915050565b600060608301600083015184820360008601526110148282610ee2565b9150506020830151848203602086015261102e8282610ee2565b915050604083015184820360408601526110488282610ee2565b9150508091505092915050565b6000602082019050818103600083015261106f8184610ff7565b905092915050565b7f4e487b7100000000000000000000000000000000000000000000000000000000600052602260045260246000fd5b600060028204905060018216806110be57607f821691505b602082108114156110d2576110d1611077565b5b50919050565b600081905092915050565b60006110ee82610d26565b6110f881856110d8565b9350611108818560208601610d42565b80840191505092915050565b600061112082846110e3565b91508190509291505056fea264697066735822122036a2cb09f59d0f6dd8c7ebad6adc294f94ba0f54060a569ea5e27da0c72b5da964736f6c63430008090033",
  "linkReferences": {},
  "deployedLinkReferences": {}
}